{
  "_format": "hh-sol-artifact-1",
  "contractName": "Transactions",
  "sourceName": "contracts/Transactions.sol",
  "abi": [
    {
      "anonymous": false,
      "inputs": [
        {
          "indexed": false,
          "internalType": "address",
          "name": "sender",
          "type": "address"
        },
        {
          "indexed": false,
          "internalType": "address",
          "name": "receiver",
          "type": "address"
        },
        {
          "indexed": false,
          "internalType": "uint256",
          "name": "amount",
          "type": "uint256"
        },
        {
          "indexed": false,
          "internalType": "string",
          "name": "message",
          "type": "string"
        },
        {
          "indexed": false,
          "internalType": "uint256",
          "name": "timestamp",
          "type": "uint256"
        },
        {
          "indexed": false,
          "internalType": "string",
          "name": "keywordord",
          "type": "string"
        }
      ],
      "name": "Transfer",
      "type": "event"
    },
    {
      "inputs": [
        {
          "internalType": "address payable",
          "name": "receiver",
          "type": "address"
        },
        {
          "internalType": "uint256",
          "name": "amount",
          "type": "uint256"
        },
        {
          "internalType": "string",
          "name": "message",
          "type": "string"
        },
        {
          "internalType": "string",
          "name": "keyword",
          "type": "string"
        }
      ],
      "name": "addToBlockChain",
      "outputs": [],
      "stateMutability": "nonpayable",
      "type": "function"
    },
    {
      "inputs": [],
      "name": "getAllTransactions",
      "outputs": [
        {
          "components": [
            {
              "internalType": "address",
              "name": "sender",
              "type": "address"
            },
            {
              "internalType": "address",
              "name": "receiver",
              "type": "address"
            },
            {
              "internalType": "uint256",
              "name": "amount",
              "type": "uint256"
            },
            {
              "internalType": "string",
              "name": "message",
              "type": "string"
            },
            {
              "internalType": "uint256",
              "name": "timestamp",
              "type": "uint256"
            },
            {
              "internalType": "string",
              "name": "keyword",
              "type": "string"
            }
          ],
          "internalType": "struct Transactions.TransactionDetails[]",
          "name": "",
          "type": "tuple[]"
        }
      ],
      "stateMutability": "view",
      "type": "function"
    },
    {
      "inputs": [
        {
          "internalType": "address",
          "name": "userAddress",
          "type": "address"
        }
      ],
      "name": "getTransactionByUser",
      "outputs": [
        {
          "components": [
            {
              "internalType": "address",
              "name": "sender",
              "type": "address"
            },
            {
              "internalType": "address",
              "name": "receiver",
              "type": "address"
            },
            {
              "internalType": "uint256",
              "name": "amount",
              "type": "uint256"
            },
            {
              "internalType": "string",
              "name": "message",
              "type": "string"
            },
            {
              "internalType": "uint256",
              "name": "timestamp",
              "type": "uint256"
            },
            {
              "internalType": "string",
              "name": "keyword",
              "type": "string"
            }
          ],
          "internalType": "struct Transactions.TransactionDetails[]",
          "name": "",
          "type": "tuple[]"
        }
      ],
      "stateMutability": "view",
      "type": "function"
    },
    {
      "inputs": [],
      "name": "getTransactionCount",
      "outputs": [
        {
          "internalType": "uint256",
          "name": "",
          "type": "uint256"
        }
      ],
      "stateMutability": "view",
      "type": "function"
    }
  ],
  "bytecode": "0x608060405234801561001057600080fd5b506110c9806100206000396000f3fe608060405234801561001057600080fd5b506004361061004c5760003560e01c806327506f53146100515780632e7700f01461006f578063b2da09601461008d578063f110781b146100a9575b600080fd5b6100596100d9565b6040516100669190610b6d565b60405180910390f35b61007761031c565b6040516100849190610b9e565b60405180910390f35b6100a760048036038101906100a29190610d6c565b610325565b005b6100c360048036038101906100be9190610e37565b6104e5565b6040516100d09190610b6d565b60405180910390f35b60606001805480602002602001604051908101604052809291908181526020016000905b8282101561031357838290600052602060002090600602016040518060c00160405290816000820160009054906101000a900473ffffffffffffffffffffffffffffffffffffffff1673ffffffffffffffffffffffffffffffffffffffff1673ffffffffffffffffffffffffffffffffffffffff1681526020016001820160009054906101000a900473ffffffffffffffffffffffffffffffffffffffff1673ffffffffffffffffffffffffffffffffffffffff1673ffffffffffffffffffffffffffffffffffffffff168152602001600282015481526020016003820180546101e690610e93565b80601f016020809104026020016040519081016040528092919081815260200182805461021290610e93565b801561025f5780601f106102345761010080835404028352916020019161025f565b820191906000526020600020905b81548152906001019060200180831161024257829003601f168201915b505050505081526020016004820154815260200160058201805461028290610e93565b80601f01602080910402602001604051908101604052809291908181526020018280546102ae90610e93565b80156102fb5780601f106102d0576101008083540402835291602001916102fb565b820191906000526020600020905b8154815290600101906020018083116102de57829003601f168201915b505050505081525050815260200190600101906100fd565b50505050905090565b60008054905090565b60008081548092919061033790610ef4565b919050555060016040518060c001604052803373ffffffffffffffffffffffffffffffffffffffff1681526020018673ffffffffffffffffffffffffffffffffffffffff16815260200185815260200184815260200142815260200183815250908060018154018082558091505060019003906000526020600020906006020160009091909190915060008201518160000160006101000a81548173ffffffffffffffffffffffffffffffffffffffff021916908373ffffffffffffffffffffffffffffffffffffffff16021790555060208201518160010160006101000a81548173ffffffffffffffffffffffffffffffffffffffff021916908373ffffffffffffffffffffffffffffffffffffffff160217905550604082015181600201556060820151816003019080519060200190610474929190610823565b506080820151816004015560a082015181600501908051906020019061049b929190610823565b5050507f416cfa4330a4565f45c2fd2dd4826a83a37443aba2ce6f79477c7355afac35fa3385858542866040516104d796959493929190610ff5565b60405180910390a150505050565b60606000805467ffffffffffffffff81111561050457610503610c41565b5b60405190808252806020026020018201604052801561053d57816020015b61052a6108a9565b8152602001906001900390816105225790505b5090506000805b600054811015610818578473ffffffffffffffffffffffffffffffffffffffff166001828154811061057957610578611064565b5b906000526020600020906006020160000160009054906101000a900473ffffffffffffffffffffffffffffffffffffffff1673ffffffffffffffffffffffffffffffffffffffff16141561080557600181815481106105db576105da611064565b5b90600052602060002090600602016040518060c00160405290816000820160009054906101000a900473ffffffffffffffffffffffffffffffffffffffff1673ffffffffffffffffffffffffffffffffffffffff1673ffffffffffffffffffffffffffffffffffffffff1681526020016001820160009054906101000a900473ffffffffffffffffffffffffffffffffffffffff1673ffffffffffffffffffffffffffffffffffffffff1673ffffffffffffffffffffffffffffffffffffffff168152602001600282015481526020016003820180546106ba90610e93565b80601f01602080910402602001604051908101604052809291908181526020018280546106e690610e93565b80156107335780601f1061070857610100808354040283529160200191610733565b820191906000526020600020905b81548152906001019060200180831161071657829003601f168201915b505050505081526020016004820154815260200160058201805461075690610e93565b80601f016020809104026020016040519081016040528092919081815260200182805461078290610e93565b80156107cf5780601f106107a4576101008083540402835291602001916107cf565b820191906000526020600020905b8154815290600101906020018083116107b257829003601f168201915b5050505050815250508383815181106107eb576107ea611064565b5b6020026020010181905250818061080190610ef4565b9250505b808061081090610ef4565b915050610544565b508192505050919050565b82805461082f90610e93565b90600052602060002090601f0160209004810192826108515760008555610898565b82601f1061086a57805160ff1916838001178555610898565b82800160010185558215610898579182015b8281111561089757825182559160200191906001019061087c565b5b5090506108a5919061090b565b5090565b6040518060c00160405280600073ffffffffffffffffffffffffffffffffffffffff168152602001600073ffffffffffffffffffffffffffffffffffffffff168152602001600081526020016060815260200160008152602001606081525090565b5b8082111561092457600081600090555060010161090c565b5090565b600081519050919050565b600082825260208201905092915050565b6000819050602082019050919050565b600073ffffffffffffffffffffffffffffffffffffffff82169050919050565b600061097f82610954565b9050919050565b61098f81610974565b82525050565b6000819050919050565b6109a881610995565b82525050565b600081519050919050565b600082825260208201905092915050565b60005b838110156109e85780820151818401526020810190506109cd565b838111156109f7576000848401525b50505050565b6000601f19601f8301169050919050565b6000610a19826109ae565b610a2381856109b9565b9350610a338185602086016109ca565b610a3c816109fd565b840191505092915050565b600060c083016000830151610a5f6000860182610986565b506020830151610a726020860182610986565b506040830151610a85604086018261099f565b5060608301518482036060860152610a9d8282610a0e565b9150506080830151610ab2608086018261099f565b5060a083015184820360a0860152610aca8282610a0e565b9150508091505092915050565b6000610ae38383610a47565b905092915050565b6000602082019050919050565b6000610b0382610928565b610b0d8185610933565b935083602082028501610b1f85610944565b8060005b85811015610b5b5784840389528151610b3c8582610ad7565b9450610b4783610aeb565b925060208a01995050600181019050610b23565b50829750879550505050505092915050565b60006020820190508181036000830152610b878184610af8565b905092915050565b610b9881610995565b82525050565b6000602082019050610bb36000830184610b8f565b92915050565b6000604051905090565b600080fd5b600080fd5b6000610bd882610954565b9050919050565b610be881610bcd565b8114610bf357600080fd5b50565b600081359050610c0581610bdf565b92915050565b610c1481610995565b8114610c1f57600080fd5b50565b600081359050610c3181610c0b565b92915050565b600080fd5b600080fd5b7f4e487b7100000000000000000000000000000000000000000000000000000000600052604160045260246000fd5b610c79826109fd565b810181811067ffffffffffffffff82111715610c9857610c97610c41565b5b80604052505050565b6000610cab610bb9565b9050610cb78282610c70565b919050565b600067ffffffffffffffff821115610cd757610cd6610c41565b5b610ce0826109fd565b9050602081019050919050565b82818337600083830152505050565b6000610d0f610d0a84610cbc565b610ca1565b905082815260208101848484011115610d2b57610d2a610c3c565b5b610d36848285610ced565b509392505050565b600082601f830112610d5357610d52610c37565b5b8135610d63848260208601610cfc565b91505092915050565b60008060008060808587031215610d8657610d85610bc3565b5b6000610d9487828801610bf6565b9450506020610da587828801610c22565b935050604085013567ffffffffffffffff811115610dc657610dc5610bc8565b5b610dd287828801610d3e565b925050606085013567ffffffffffffffff811115610df357610df2610bc8565b5b610dff87828801610d3e565b91505092959194509250565b610e1481610974565b8114610e1f57600080fd5b50565b600081359050610e3181610e0b565b92915050565b600060208284031215610e4d57610e4c610bc3565b5b6000610e5b84828501610e22565b91505092915050565b7f4e487b7100000000000000000000000000000000000000000000000000000000600052602260045260246000fd5b60006002820490506001821680610eab57607f821691505b60208210811415610ebf57610ebe610e64565b5b50919050565b7f4e487b7100000000000000000000000000000000000000000000000000000000600052601160045260246000fd5b6000610eff82610995565b91507fffffffffffffffffffffffffffffffffffffffffffffffffffffffffffffffff821415610f3257610f31610ec5565b5b600182019050919050565b610f4681610974565b82525050565b6000819050919050565b6000610f71610f6c610f6784610954565b610f4c565b610954565b9050919050565b6000610f8382610f56565b9050919050565b6000610f9582610f78565b9050919050565b610fa581610f8a565b82525050565b600082825260208201905092915050565b6000610fc7826109ae565b610fd18185610fab565b9350610fe18185602086016109ca565b610fea816109fd565b840191505092915050565b600060c08201905061100a6000830189610f3d565b6110176020830188610f9c565b6110246040830187610b8f565b81810360608301526110368186610fbc565b90506110456080830185610b8f565b81810360a08301526110578184610fbc565b9050979650505050505050565b7f4e487b7100000000000000000000000000000000000000000000000000000000600052603260045260246000fdfea26469706673582212203a797828f1536b5f82e6953e07c6a8dff7d6b9d68e9c8e19ea8c105d4ba5a76264736f6c63430008090033",
  "linkReferences": {},
  "deployedLinkReferences": {}
}